{
  "address": "0xfa39439941854F45D129cbFafba3C72f2a54c570",
  "abi": [
    {
      "inputs": [
        {
          "internalType": "uint256",
          "name": "_fee",
          "type": "uint256"
        }
      ],
      "stateMutability": "nonpayable",
      "type": "constructor"
    },
    {
      "anonymous": false,
      "inputs": [
        {
          "indexed": true,
          "internalType": "address",
          "name": "buyer",
          "type": "address"
        }
      ],
      "name": "boughtFromManufacturer",
      "type": "event"
    },
    {
      "anonymous": false,
      "inputs": [
        {
          "indexed": true,
          "internalType": "address",
          "name": "retailer",
          "type": "address"
        }
      ],
      "name": "boughtFromWholSaler",
      "type": "event"
    },
    {
      "anonymous": false,
      "inputs": [
        {
          "indexed": true,
          "internalType": "address",
          "name": "consumer",
          "type": "address"
        }
      ],
      "name": "consumerSetUpCompleted",
      "type": "event"
    },
    {
      "anonymous": false,
      "inputs": [
        {
          "indexed": true,
          "internalType": "address",
          "name": "manufacturer",
          "type": "address"
        }
      ],
      "name": "manufacturerSetUpCompleted",
      "type": "event"
    },
    {
      "anonymous": false,
      "inputs": [
        {
          "indexed": true,
          "internalType": "address",
          "name": "manufacturer",
          "type": "address"
        }
      ],
      "name": "productDetailsAdded",
      "type": "event"
    },
    {
      "anonymous": false,
      "inputs": [
        {
          "indexed": true,
          "internalType": "address",
          "name": "manufacturer",
          "type": "address"
        }
      ],
      "name": "productsFinished",
      "type": "event"
    },
    {
      "anonymous": false,
      "inputs": [
        {
          "indexed": true,
          "internalType": "address",
          "name": "retail",
          "type": "address"
        }
      ],
      "name": "retailerSetUpCompleted",
      "type": "event"
    },
    {
      "anonymous": false,
      "inputs": [
        {
          "indexed": true,
          "internalType": "address",
          "name": "whol",
          "type": "address"
        }
      ],
      "name": "wholsalerSetUpCompleted",
      "type": "event"
    },
    {
      "inputs": [],
      "name": "FEE",
      "outputs": [
        {
          "internalType": "uint256",
          "name": "",
          "type": "uint256"
        }
      ],
      "stateMutability": "view",
      "type": "function"
    },
    {
      "inputs": [
        {
          "internalType": "uint256",
          "name": "mfgId",
          "type": "uint256"
        },
        {
          "internalType": "string",
          "name": "name",
          "type": "string"
        },
        {
          "internalType": "uint256",
          "name": "mfgYear",
          "type": "uint256"
        },
        {
          "internalType": "uint256",
          "name": "quantity",
          "type": "uint256"
        },
        {
          "internalType": "uint256",
          "name": "expireYear",
          "type": "uint256"
        },
        {
          "internalType": "uint256",
          "name": "sellingPrice",
          "type": "uint256"
        },
        {
          "internalType": "uint256",
          "name": "uniqueId",
          "type": "uint256"
        }
      ],
      "name": "addProducts",
      "outputs": [],
      "stateMutability": "payable",
      "type": "function"
    },
    {
      "inputs": [
        {
          "internalType": "uint256",
          "name": "wholId",
          "type": "uint256"
        },
        {
          "internalType": "uint256",
          "name": "mfgId",
          "type": "uint256"
        },
        {
          "internalType": "uint256",
          "name": "quantityDemanded",
          "type": "uint256"
        },
        {
          "internalType": "uint256",
          "name": "productId",
          "type": "uint256"
        }
      ],
      "name": "buyFromManufacturer",
      "outputs": [],
      "stateMutability": "payable",
      "type": "function"
    },
    {
      "inputs": [
        {
          "internalType": "uint256",
          "name": "retailId",
          "type": "uint256"
        },
        {
          "internalType": "uint256",
          "name": "consId",
          "type": "uint256"
        },
        {
          "internalType": "uint256",
          "name": "quantityDemanded",
          "type": "uint256"
        },
        {
          "internalType": "uint256",
          "name": "productId",
          "type": "uint256"
        }
      ],
      "name": "buyFromRetailer",
      "outputs": [],
      "stateMutability": "payable",
      "type": "function"
    },
    {
      "inputs": [
        {
          "internalType": "uint256",
          "name": "retailId",
          "type": "uint256"
        },
        {
          "internalType": "uint256",
          "name": "wholId",
          "type": "uint256"
        },
        {
          "internalType": "uint256",
          "name": "quantityDemanded",
          "type": "uint256"
        },
        {
          "internalType": "uint256",
          "name": "productId",
          "type": "uint256"
        }
      ],
      "name": "buyFromWholSaler",
      "outputs": [],
      "stateMutability": "payable",
      "type": "function"
    },
    {
      "inputs": [
        {
          "internalType": "uint256",
          "name": "",
          "type": "uint256"
        }
      ],
      "name": "consumerDetail",
      "outputs": [
        {
          "internalType": "address",
          "name": "consumer",
          "type": "address"
        },
        {
          "internalType": "string",
          "name": "name",
          "type": "string"
        },
        {
          "internalType": "uint256",
          "name": "consId",
          "type": "uint256"
        }
      ],
      "stateMutability": "view",
      "type": "function"
    },
    {
      "inputs": [
        {
          "internalType": "uint256",
          "name": "",
          "type": "uint256"
        },
        {
          "internalType": "uint256",
          "name": "",
          "type": "uint256"
        }
      ],
      "name": "consumerProdHistory",
      "outputs": [
        {
          "internalType": "address",
          "name": "manufacturer",
          "type": "address"
        },
        {
          "internalType": "string",
          "name": "productName",
          "type": "string"
        },
        {
          "internalType": "uint256",
          "name": "mfgYear",
          "type": "uint256"
        },
        {
          "internalType": "uint256",
          "name": "quantity",
          "type": "uint256"
        },
        {
          "internalType": "uint256",
          "name": "expireYear",
          "type": "uint256"
        },
        {
          "internalType": "uint256",
          "name": "sellingPrice",
          "type": "uint256"
        },
        {
          "internalType": "uint256",
          "name": "lotPrice",
          "type": "uint256"
        },
        {
          "internalType": "uint256",
          "name": "uniqueId",
          "type": "uint256"
        }
      ],
      "stateMutability": "view",
      "type": "function"
    },
    {
      "inputs": [
        {
          "internalType": "string",
          "name": "name",
          "type": "string"
        },
        {
          "internalType": "uint256",
          "name": "id",
          "type": "uint256"
        }
      ],
      "name": "consumerSetDetail",
      "outputs": [],
      "stateMutability": "payable",
      "type": "function"
    },
    {
      "inputs": [
        {
          "internalType": "uint256",
          "name": "",
          "type": "uint256"
        }
      ],
      "name": "foundProducts",
      "outputs": [
        {
          "internalType": "address",
          "name": "manufacturer",
          "type": "address"
        },
        {
          "internalType": "string",
          "name": "productName",
          "type": "string"
        },
        {
          "internalType": "uint256",
          "name": "mfgYear",
          "type": "uint256"
        },
        {
          "internalType": "uint256",
          "name": "quantity",
          "type": "uint256"
        },
        {
          "internalType": "uint256",
          "name": "expireYear",
          "type": "uint256"
        },
        {
          "internalType": "uint256",
          "name": "sellingPrice",
          "type": "uint256"
        },
        {
          "internalType": "uint256",
          "name": "lotPrice",
          "type": "uint256"
        },
        {
          "internalType": "uint256",
          "name": "uniqueId",
          "type": "uint256"
        }
      ],
      "stateMutability": "view",
      "type": "function"
    },
    {
      "inputs": [
        {
          "internalType": "uint256",
          "name": "",
          "type": "uint256"
        }
      ],
      "name": "manDetails",
      "outputs": [
        {
          "internalType": "address",
          "name": "manufacturer",
          "type": "address"
        },
        {
          "internalType": "string",
          "name": "name",
          "type": "string"
        },
        {
          "internalType": "uint256",
          "name": "manId",
          "type": "uint256"
        }
      ],
      "stateMutability": "view",
      "type": "function"
    },
    {
      "inputs": [
        {
          "internalType": "string",
          "name": "name",
          "type": "string"
        },
        {
          "internalType": "uint256",
          "name": "id",
          "type": "uint256"
        }
      ],
      "name": "manufacturerSetDetails",
      "outputs": [],
      "stateMutability": "payable",
      "type": "function"
    },
    {
      "inputs": [
        {
          "internalType": "uint256",
          "name": "",
          "type": "uint256"
        },
        {
          "internalType": "uint256",
          "name": "",
          "type": "uint256"
        }
      ],
      "name": "mfgProdHistory",
      "outputs": [
        {
          "internalType": "address",
          "name": "manufacturer",
          "type": "address"
        },
        {
          "internalType": "string",
          "name": "productName",
          "type": "string"
        },
        {
          "internalType": "uint256",
          "name": "mfgYear",
          "type": "uint256"
        },
        {
          "internalType": "uint256",
          "name": "quantity",
          "type": "uint256"
        },
        {
          "internalType": "uint256",
          "name": "expireYear",
          "type": "uint256"
        },
        {
          "internalType": "uint256",
          "name": "sellingPrice",
          "type": "uint256"
        },
        {
          "internalType": "uint256",
          "name": "lotPrice",
          "type": "uint256"
        },
        {
          "internalType": "uint256",
          "name": "uniqueId",
          "type": "uint256"
        }
      ],
      "stateMutability": "view",
      "type": "function"
    },
    {
      "inputs": [
        {
          "internalType": "uint256",
          "name": "productId",
          "type": "uint256"
        }
      ],
      "name": "productHistory",
      "outputs": [
        {
          "components": [
            {
              "internalType": "address",
              "name": "manufacturer",
              "type": "address"
            },
            {
              "internalType": "string",
              "name": "productName",
              "type": "string"
            },
            {
              "internalType": "uint256",
              "name": "mfgYear",
              "type": "uint256"
            },
            {
              "internalType": "uint256",
              "name": "quantity",
              "type": "uint256"
            },
            {
              "internalType": "uint256",
              "name": "expireYear",
              "type": "uint256"
            },
            {
              "internalType": "uint256",
              "name": "sellingPrice",
              "type": "uint256"
            },
            {
              "internalType": "uint256",
              "name": "lotPrice",
              "type": "uint256"
            },
            {
              "internalType": "uint256",
              "name": "uniqueId",
              "type": "uint256"
            }
          ],
          "internalType": "struct supplyChain.productDetails[]",
          "name": "",
          "type": "tuple[]"
        }
      ],
      "stateMutability": "nonpayable",
      "type": "function"
    },
    {
      "inputs": [
        {
          "internalType": "uint256",
          "name": "",
          "type": "uint256"
        }
      ],
      "name": "retailDetail",
      "outputs": [
        {
          "internalType": "address",
          "name": "retail",
          "type": "address"
        },
        {
          "internalType": "string",
          "name": "name",
          "type": "string"
        },
        {
          "internalType": "uint256",
          "name": "retailId",
          "type": "uint256"
        }
      ],
      "stateMutability": "view",
      "type": "function"
    },
    {
      "inputs": [
        {
          "internalType": "uint256",
          "name": "",
          "type": "uint256"
        },
        {
          "internalType": "uint256",
          "name": "",
          "type": "uint256"
        }
      ],
      "name": "retailProdHistory",
      "outputs": [
        {
          "internalType": "address",
          "name": "manufacturer",
          "type": "address"
        },
        {
          "internalType": "string",
          "name": "productName",
          "type": "string"
        },
        {
          "internalType": "uint256",
          "name": "mfgYear",
          "type": "uint256"
        },
        {
          "internalType": "uint256",
          "name": "quantity",
          "type": "uint256"
        },
        {
          "internalType": "uint256",
          "name": "expireYear",
          "type": "uint256"
        },
        {
          "internalType": "uint256",
          "name": "sellingPrice",
          "type": "uint256"
        },
        {
          "internalType": "uint256",
          "name": "lotPrice",
          "type": "uint256"
        },
        {
          "internalType": "uint256",
          "name": "uniqueId",
          "type": "uint256"
        }
      ],
      "stateMutability": "view",
      "type": "function"
    },
    {
      "inputs": [
        {
          "internalType": "string",
          "name": "name",
          "type": "string"
        },
        {
          "internalType": "uint256",
          "name": "id",
          "type": "uint256"
        }
      ],
      "name": "retailSetDetail",
      "outputs": [],
      "stateMutability": "payable",
      "type": "function"
    },
    {
      "inputs": [
        {
          "internalType": "uint256",
          "name": "",
          "type": "uint256"
        }
      ],
      "name": "wholDetail",
      "outputs": [
        {
          "internalType": "address",
          "name": "whol",
          "type": "address"
        },
        {
          "internalType": "string",
          "name": "name",
          "type": "string"
        },
        {
          "internalType": "uint256",
          "name": "wholId",
          "type": "uint256"
        }
      ],
      "stateMutability": "view",
      "type": "function"
    },
    {
      "inputs": [
        {
          "internalType": "uint256",
          "name": "",
          "type": "uint256"
        },
        {
          "internalType": "uint256",
          "name": "",
          "type": "uint256"
        }
      ],
      "name": "wholProdHistory",
      "outputs": [
        {
          "internalType": "address",
          "name": "manufacturer",
          "type": "address"
        },
        {
          "internalType": "string",
          "name": "productName",
          "type": "string"
        },
        {
          "internalType": "uint256",
          "name": "mfgYear",
          "type": "uint256"
        },
        {
          "internalType": "uint256",
          "name": "quantity",
          "type": "uint256"
        },
        {
          "internalType": "uint256",
          "name": "expireYear",
          "type": "uint256"
        },
        {
          "internalType": "uint256",
          "name": "sellingPrice",
          "type": "uint256"
        },
        {
          "internalType": "uint256",
          "name": "lotPrice",
          "type": "uint256"
        },
        {
          "internalType": "uint256",
          "name": "uniqueId",
          "type": "uint256"
        }
      ],
      "stateMutability": "view",
      "type": "function"
    },
    {
      "inputs": [
        {
          "internalType": "string",
          "name": "name",
          "type": "string"
        },
        {
          "internalType": "uint256",
          "name": "id",
          "type": "uint256"
        }
      ],
      "name": "wholsalersSetDetail",
      "outputs": [],
      "stateMutability": "payable",
      "type": "function"
    }
  ],
  "transactionHash": "0x698abc5b15fd445b77d8736180d782a11212e24b079d7b4f00b0dee1d50821cb",
  "args": [
    "10000000000000000"
  ],
  "numDeployments": 1,
  "solcInputHash": "0a2a9c3027f57064b053e7b16d008528",
  "bytecode": "0x60a060405234801561001057600080fd5b50604051614b3d380380614b3d8339818101604052810190610032919061007b565b8060808181525050506100a8565b600080fd5b6000819050919050565b61005881610045565b811461006357600080fd5b50565b6000815190506100758161004f565b92915050565b60006020828403121561009157610090610040565b5b600061009f84828501610066565b91505092915050565b608051614a576100e6600039600081816106a7015281816108f301528181611f4001528181612374015281816126ed01526128440152614a576000f3fe6080604052600436106101145760003560e01c80636e39e167116100a0578063a7c36ea711610064578063a7c36ea7146103a5578063c57981b5146103c1578063cf971c7e146103ec578063d8885a8614610430578063ee44ed371461047457610114565b80636e39e167146102b05780637a8b0f2d146102cc5780637d3e687b1461030b5780639552ff321461034a578063994202161461036657610114565b80632940996c116100e75780632940996c146101d4578063332fbd24146101f05780634a4868881461020c57806363780df31461022857806369a27f8c1461026c57610114565b806307867bb0146101195780630f0479361461015d57806316eae9531461017957806324a854f514610195575b600080fd5b34801561012557600080fd5b50610140600480360381019061013b919061384a565b6104b1565b604051610154989796959493929190613957565b60405180910390f35b61017760048036038101906101729190613b11565b6105b1565b005b610193600480360381019061018e9190613b11565b6107fd565b005b3480156101a157600080fd5b506101bc60048036038101906101b7919061384a565b610a49565b6040516101cb93929190613b6d565b60405180910390f35b6101ee60048036038101906101e99190613bab565b610b1b565b005b61020a60048036038101906102059190613bab565b611018565b005b61022660048036038101906102219190613bab565b61174c565b005b34801561023457600080fd5b5061024f600480360381019061024a9190613c12565b611c30565b604051610263989796959493929190613957565b60405180910390f35b34801561027857600080fd5b50610293600480360381019061028e9190613c12565b611d3d565b6040516102a7989796959493929190613957565b60405180910390f35b6102ca60048036038101906102c59190613b11565b611e4a565b005b3480156102d857600080fd5b506102f360048036038101906102ee919061384a565b612096565b60405161030293929190613b6d565b60405180910390f35b34801561031757600080fd5b50610332600480360381019061032d919061384a565b612168565b60405161034193929190613b6d565b60405180910390f35b610364600480360381019061035f9190613c52565b61223a565b005b34801561037257600080fd5b5061038d6004803603810190610388919061384a565b612526565b60405161039c93929190613b6d565b60405180910390f35b6103bf60048036038101906103ba9190613b11565b6125f8565b005b3480156103cd57600080fd5b506103d6612842565b6040516103e39190613d10565b60405180910390f35b3480156103f857600080fd5b50610413600480360381019061040e9190613c12565b612866565b604051610427989796959493929190613957565b60405180910390f35b34801561043c57600080fd5b5061045760048036038101906104529190613c12565b612973565b60405161046b989796959493929190613957565b60405180910390f35b34801561048057600080fd5b5061049b6004803603810190610496919061384a565b612a80565b6040516104a89190613f05565b60405180910390f35b600881815481106104c157600080fd5b90600052602060002090600802016000915090508060000160009054906101000a900473ffffffffffffffffffffffffffffffffffffffff169080600101805461050a90613f56565b80601f016020809104026020016040519081016040528092919081815260200182805461053690613f56565b80156105835780601f1061055857610100808354040283529160200191610583565b820191906000526020600020905b81548152906001019060200180831161056657829003601f168201915b5050505050908060020154908060030154908060040154908060050154908060060154908060070154905088565b6000811180156105c15750600581105b610600576040517f08c379a00000000000000000000000000000000000000000000000000000000081526004016105f790613ff9565b60405180910390fd5b600073ffffffffffffffffffffffffffffffffffffffff166002600083815260200190815260200160002060000160009054906101000a900473ffffffffffffffffffffffffffffffffffffffff1673ffffffffffffffffffffffffffffffffffffffff16146106a5576040517f08c379a000000000000000000000000000000000000000000000000000000000815260040161069c90614065565b60405180910390fd5b7f0000000000000000000000000000000000000000000000000000000000000000341015610708576040517f08c379a00000000000000000000000000000000000000000000000000000000081526004016106ff906140d1565b60405180910390fd5b60405180606001604052803373ffffffffffffffffffffffffffffffffffffffff168152602001838152602001828152506002600083815260200190815260200160002060008201518160000160006101000a81548173ffffffffffffffffffffffffffffffffffffffff021916908373ffffffffffffffffffffffffffffffffffffffff16021790555060208201518160010190816107a8919061429d565b50604082015181600201559050503373ffffffffffffffffffffffffffffffffffffffff167f9deebe8b8171d3ec28c70fa454202299b1350f5cb61b09e9ca2820ebe7da1ef760405160405180910390a25050565b60008111801561080d5750600581105b61084c576040517f08c379a000000000000000000000000000000000000000000000000000000000815260040161084390613ff9565b60405180910390fd5b600073ffffffffffffffffffffffffffffffffffffffff166003600083815260200190815260200160002060000160009054906101000a900473ffffffffffffffffffffffffffffffffffffffff1673ffffffffffffffffffffffffffffffffffffffff16146108f1576040517f08c379a00000000000000000000000000000000000000000000000000000000081526004016108e890614065565b60405180910390fd5b7f0000000000000000000000000000000000000000000000000000000000000000341015610954576040517f08c379a000000000000000000000000000000000000000000000000000000000815260040161094b906140d1565b60405180910390fd5b60405180606001604052803373ffffffffffffffffffffffffffffffffffffffff168152602001838152602001828152506003600083815260200190815260200160002060008201518160000160006101000a81548173ffffffffffffffffffffffffffffffffffffffff021916908373ffffffffffffffffffffffffffffffffffffffff16021790555060208201518160010190816109f4919061429d565b50604082015181600201559050503373ffffffffffffffffffffffffffffffffffffffff167fa94c69cc9279cef6cf89e4950017cded9bb24ed271caa4ddedd025b2dcc0bca560405160405180910390a25050565b60006020528060005260406000206000915090508060000160009054906101000a900473ffffffffffffffffffffffffffffffffffffffff1690806001018054610a9290613f56565b80601f0160208091040260200160405190810160405280929190818152602001828054610abe90613f56565b8015610b0b5780601f10610ae057610100808354040283529160200191610b0b565b820191906000526020600020905b815481529060010190602001808311610aee57829003601f168201915b5050505050908060020154905083565b600073ffffffffffffffffffffffffffffffffffffffff166003600085815260200190815260200160002060000160009054906101000a900473ffffffffffffffffffffffffffffffffffffffff1673ffffffffffffffffffffffffffffffffffffffff1603610bc0576040517f08c379a0000000000000000000000000000000000000000000000000000000008152600401610bb7906143bb565b60405180910390fd5b6000600660008681526020019081526020016000208281548110610be757610be66143db565b5b9060005260206000209060080201600301549050808310610c3d576040517f08c379a0000000000000000000000000000000000000000000000000000000008152600401610c3490614456565b60405180910390fd5b6000600660008781526020019081526020016000208381548110610c6457610c636143db565b5b906000526020600020906008020160050154905060006005826006610c8991906144a5565b610c939190614516565b90508185610ca191906144a5565b341015610ce3576040517f08c379a0000000000000000000000000000000000000000000000000000000008152600401610cda90614593565b60405180910390fd5b8483610cef91906145b3565b925060076000878152602001908152602001600020604051806101000160405280600660008b81526020019081526020016000208781548110610d3557610d346143db565b5b906000526020600020906008020160000160009054906101000a900473ffffffffffffffffffffffffffffffffffffffff1673ffffffffffffffffffffffffffffffffffffffff168152602001600660008b81526020019081526020016000208781548110610da757610da66143db565b5b90600052602060002090600802016001018054610dc390613f56565b80601f0160208091040260200160405190810160405280929190818152602001828054610def90613f56565b8015610e3c5780601f10610e1157610100808354040283529160200191610e3c565b820191906000526020600020905b815481529060010190602001808311610e1f57829003601f168201915b50505050508152602001600660008b81526020019081526020016000208781548110610e6b57610e6a6143db565b5b9060005260206000209060080201600201548152602001878152602001600660008b81526020019081526020016000208781548110610ead57610eac6143db565b5b9060005260206000209060080201600401548152602001838152602001600660008b81526020019081526020016000208781548110610eef57610eee6143db565b5b90600052602060002090600802016005015486610f0c91906144a5565b8152602001600660008b81526020019081526020016000208781548110610f3657610f356143db565b5b906000526020600020906008020160070154815250908060018154018082558091505060019003906000526020600020906008020160009091909190915060008201518160000160006101000a81548173ffffffffffffffffffffffffffffffffffffffff021916908373ffffffffffffffffffffffffffffffffffffffff1602179055506020820151816001019081610fd0919061429d565b5060408201518160020155606082015181600301556080820151816004015560a0820151816005015560c0820151816006015560e08201518160070155505050505050505050565b600060056000868152602001908152602001600020805490505050600073ffffffffffffffffffffffffffffffffffffffff166001600086815260200190815260200160002060000160009054906101000a900473ffffffffffffffffffffffffffffffffffffffff1673ffffffffffffffffffffffffffffffffffffffff16036110d8576040517f08c379a00000000000000000000000000000000000000000000000000000000081526004016110cf90614633565b60405180910390fd5b6000600460008581526020019081526020016000206001836110fa91906145b3565b8154811061110b5761110a6143db565b5b90600052602060002090600802019050600081600301549050600082600501549050600060028361113c9190614516565b861161117d576040517f08c379a00000000000000000000000000000000000000000000000000000000081526004016111749061469f565b60405180910390fd5b8286106111bf576040517f08c379a00000000000000000000000000000000000000000000000000000000081526004016111b69061470b565b60405180910390fd5b6000846003015403611233578360000160009054906101000a900473ffffffffffffffffffffffffffffffffffffffff1673ffffffffffffffffffffffffffffffffffffffff167f86aa33c850321053846cafd904bf694ad3645a886be4f941484491965b001d2a60405160405180910390a25b818661123f91906144a5565b341015611281576040517f08c379a000000000000000000000000000000000000000000000000000000000815260040161127890614593565b60405180910390fd5b600080600089815260200190815260200160002060000160009054906101000a900473ffffffffffffffffffffffffffffffffffffffff1673ffffffffffffffffffffffffffffffffffffffff16346040516112dc9061475c565b60006040518083038185875af1925050503d8060008114611319576040519150601f19603f3d011682016040523d82523d6000602084013e61131e565b606091505b5050905080611362576040517f08c379a0000000000000000000000000000000000000000000000000000000008152600401611359906147bd565b60405180910390fd5b8685600301600082825461137691906145b3565b92505081905550600583600661138c91906144a5565b6113969190614516565b9150600560008a8152602001908152602001600020604051806101000160405280600460008c815260200190815260200160002060018a6113d791906145b3565b815481106113e8576113e76143db565b5b906000526020600020906008020160000160009054906101000a900473ffffffffffffffffffffffffffffffffffffffff1673ffffffffffffffffffffffffffffffffffffffff168152602001600460008c815260200190815260200160002060018a61145591906145b3565b81548110611466576114656143db565b5b9060005260206000209060080201600101805461148290613f56565b80601f01602080910402602001604051908101604052809291908181526020018280546114ae90613f56565b80156114fb5780601f106114d0576101008083540402835291602001916114fb565b820191906000526020600020905b8154815290600101906020018083116114de57829003601f168201915b50505050508152602001600460008c815260200190815260200160002060018a61152591906145b3565b81548110611536576115356143db565b5b9060005260206000209060080201600201548152602001898152602001600460008c815260200190815260200160002060018a61157391906145b3565b81548110611584576115836143db565b5b9060005260206000209060080201600401548152602001848152602001600460008c815260200190815260200160002060018a6115c191906145b3565b815481106115d2576115d16143db565b5b906000526020600020906008020160050154876115ef91906144a5565b8152602001600460008c815260200190815260200160002060018a61161491906145b3565b81548110611625576116246143db565b5b906000526020600020906008020160070154815250908060018154018082558091505060019003906000526020600020906008020160009091909190915060008201518160000160006101000a81548173ffffffffffffffffffffffffffffffffffffffff021916908373ffffffffffffffffffffffffffffffffffffffff16021790555060208201518160010190816116bf919061429d565b5060408201518160020155606082015181600301556080820151816004015560a0820151816005015560c0820151816006015560e0820151816007015550503373ffffffffffffffffffffffffffffffffffffffff167f312854fc2a06e84ecdd29c308e36fc3ae35730d1a0c16b2c65b1d352646a7bce60405160405180910390a2505050505050505050565b600073ffffffffffffffffffffffffffffffffffffffff166002600086815260200190815260200160002060000160009054906101000a900473ffffffffffffffffffffffffffffffffffffffff1673ffffffffffffffffffffffffffffffffffffffff16036117f1576040517f08c379a00000000000000000000000000000000000000000000000000000000081526004016117e890614829565b60405180910390fd5b60006005600085815260200190815260200160002060018361181391906145b3565b81548110611824576118236143db565b5b9060005260206000209060080201905060008160030154905080841061187f576040517f08c379a000000000000000000000000000000000000000000000000000000000815260040161187690614456565b60405180910390fd5b6000826005015490506000600582600661189991906144a5565b6118a39190614516565b905081866118b191906144a5565b3410156118f3576040517f08c379a00000000000000000000000000000000000000000000000000000000081526004016118ea90614593565b60405180910390fd5b60006001600089815260200190815260200160002060000160009054906101000a900473ffffffffffffffffffffffffffffffffffffffff1673ffffffffffffffffffffffffffffffffffffffff163460405161194f9061475c565b60006040518083038185875af1925050503d806000811461198c576040519150601f19603f3d011682016040523d82523d6000602084013e611991565b606091505b50509050806119d5576040517f08c379a00000000000000000000000000000000000000000000000000000000081526004016119cc906147bd565b60405180910390fd5b868560030160008282546119e991906145b3565b92505081905550600660008a81526020019081526020016000206040518061010001604052808760000160009054906101000a900473ffffffffffffffffffffffffffffffffffffffff1673ffffffffffffffffffffffffffffffffffffffff168152602001876001018054611a5e90613f56565b80601f0160208091040260200160405190810160405280929190818152602001828054611a8a90613f56565b8015611ad75780601f10611aac57610100808354040283529160200191611ad7565b820191906000526020600020905b815481529060010190602001808311611aba57829003601f168201915b505050505081526020018760020154815260200189815260200187600401548152602001848152602001876005015487611b1191906144a5565b81526020018760070154815250908060018154018082558091505060019003906000526020600020906008020160009091909190915060008201518160000160006101000a81548173ffffffffffffffffffffffffffffffffffffffff021916908373ffffffffffffffffffffffffffffffffffffffff1602179055506020820151816001019081611ba3919061429d565b5060408201518160020155606082015181600301556080820151816004015560a0820151816005015560c0820151816006015560e0820151816007015550503373ffffffffffffffffffffffffffffffffffffffff167f1d183a9e54bcf8a54348042845f65f47995a745197e1ab754a33a28a2485495460405160405180910390a2505050505050505050565b60076020528160005260406000208181548110611c4c57600080fd5b9060005260206000209060080201600091509150508060000160009054906101000a900473ffffffffffffffffffffffffffffffffffffffff1690806001018054611c9690613f56565b80601f0160208091040260200160405190810160405280929190818152602001828054611cc290613f56565b8015611d0f5780601f10611ce457610100808354040283529160200191611d0f565b820191906000526020600020905b815481529060010190602001808311611cf257829003601f168201915b5050505050908060020154908060030154908060040154908060050154908060060154908060070154905088565b60056020528160005260406000208181548110611d5957600080fd5b9060005260206000209060080201600091509150508060000160009054906101000a900473ffffffffffffffffffffffffffffffffffffffff1690806001018054611da390613f56565b80601f0160208091040260200160405190810160405280929190818152602001828054611dcf90613f56565b8015611e1c5780601f10611df157610100808354040283529160200191611e1c565b820191906000526020600020905b815481529060010190602001808311611dff57829003601f168201915b5050505050908060020154908060030154908060040154908060050154908060060154908060070154905088565b600081118015611e5a5750600581105b611e99576040517f08c379a0000000000000000000000000000000000000000000000000000000008152600401611e9090613ff9565b60405180910390fd5b600073ffffffffffffffffffffffffffffffffffffffff166001600083815260200190815260200160002060000160009054906101000a900473ffffffffffffffffffffffffffffffffffffffff1673ffffffffffffffffffffffffffffffffffffffff1614611f3e576040517f08c379a0000000000000000000000000000000000000000000000000000000008152600401611f3590614065565b60405180910390fd5b7f0000000000000000000000000000000000000000000000000000000000000000341015611fa1576040517f08c379a0000000000000000000000000000000000000000000000000000000008152600401611f98906140d1565b60405180910390fd5b60405180606001604052803373ffffffffffffffffffffffffffffffffffffffff168152602001838152602001828152506001600083815260200190815260200160002060008201518160000160006101000a81548173ffffffffffffffffffffffffffffffffffffffff021916908373ffffffffffffffffffffffffffffffffffffffff1602179055506020820151816001019081612041919061429d565b50604082015181600201559050503373ffffffffffffffffffffffffffffffffffffffff167fdfdbe1cacea90359341ffd35daed95b616eb773be23926ac1636395cc0ec99e160405160405180910390a25050565b60026020528060005260406000206000915090508060000160009054906101000a900473ffffffffffffffffffffffffffffffffffffffff16908060010180546120df90613f56565b80601f016020809104026020016040519081016040528092919081815260200182805461210b90613f56565b80156121585780601f1061212d57610100808354040283529160200191612158565b820191906000526020600020905b81548152906001019060200180831161213b57829003601f168201915b5050505050908060020154905083565b60036020528060005260406000206000915090508060000160009054906101000a900473ffffffffffffffffffffffffffffffffffffffff16908060010180546121b190613f56565b80601f01602080910402602001604051908101604052809291908181526020018280546121dd90613f56565b801561222a5780601f106121ff5761010080835404028352916020019161222a565b820191906000526020600020905b81548152906001019060200180831161220d57829003601f168201915b5050505050908060020154905083565b60008711801561224a5750600587105b612289576040517f08c379a000000000000000000000000000000000000000000000000000000000815260040161228090613ff9565b60405180910390fd5b600073ffffffffffffffffffffffffffffffffffffffff1660008089815260200190815260200160002060000160009054906101000a900473ffffffffffffffffffffffffffffffffffffffff1673ffffffffffffffffffffffffffffffffffffffff160361232d576040517f08c379a0000000000000000000000000000000000000000000000000000000008152600401612324906148bb565b60405180910390fd5b60003411612370576040517f08c379a000000000000000000000000000000000000000000000000000000000815260040161236790614927565b60405180910390fd5b600a7f000000000000000000000000000000000000000000000000000000000000000061239d9190614516565b34116123a857600080fd5b600460008881526020019081526020016000206040518061010001604052803373ffffffffffffffffffffffffffffffffffffffff168152602001888152602001878152602001868152602001858152602001848152602001848761240d91906144a5565b815260200183815250908060018154018082558091505060019003906000526020600020906008020160009091909190915060008201518160000160006101000a81548173ffffffffffffffffffffffffffffffffffffffff021916908373ffffffffffffffffffffffffffffffffffffffff160217905550602082015181600101908161249b919061429d565b5060408201518160020155606082015181600301556080820151816004015560a0820151816005015560c0820151816006015560e0820151816007015550503373ffffffffffffffffffffffffffffffffffffffff167fc2d2c8407e38bc2b9237ba23fe36e3e43adb9774f56d9c1b7bae86d1a8082f0460405160405180910390a250505050505050565b60016020528060005260406000206000915090508060000160009054906101000a900473ffffffffffffffffffffffffffffffffffffffff169080600101805461256f90613f56565b80601f016020809104026020016040519081016040528092919081815260200182805461259b90613f56565b80156125e85780601f106125bd576101008083540402835291602001916125e8565b820191906000526020600020905b8154815290600101906020018083116125cb57829003601f168201915b5050505050908060020154905083565b6000811180156126085750600581105b612647576040517f08c379a000000000000000000000000000000000000000000000000000000000815260040161263e90613ff9565b60405180910390fd5b600073ffffffffffffffffffffffffffffffffffffffff1660008083815260200190815260200160002060000160009054906101000a900473ffffffffffffffffffffffffffffffffffffffff1673ffffffffffffffffffffffffffffffffffffffff16146126eb576040517f08c379a00000000000000000000000000000000000000000000000000000000081526004016126e2906149b9565b60405180910390fd5b7f000000000000000000000000000000000000000000000000000000000000000034101561274e576040517f08c379a0000000000000000000000000000000000000000000000000000000008152600401612745906140d1565b60405180910390fd5b60405180606001604052803373ffffffffffffffffffffffffffffffffffffffff1681526020018381526020018281525060008083815260200190815260200160002060008201518160000160006101000a81548173ffffffffffffffffffffffffffffffffffffffff021916908373ffffffffffffffffffffffffffffffffffffffff16021790555060208201518160010190816127ed919061429d565b50604082015181600201559050503373ffffffffffffffffffffffffffffffffffffffff167f636b886b67e1f206e8e01839d218f4f62e1141686c71c4c33adff594282af55760405160405180910390a25050565b7f000000000000000000000000000000000000000000000000000000000000000081565b6004602052816000526040600020818154811061288257600080fd5b9060005260206000209060080201600091509150508060000160009054906101000a900473ffffffffffffffffffffffffffffffffffffffff16908060010180546128cc90613f56565b80601f01602080910402602001604051908101604052809291908181526020018280546128f890613f56565b80156129455780601f1061291a57610100808354040283529160200191612945565b820191906000526020600020905b81548152906001019060200180831161292857829003601f168201915b5050505050908060020154908060030154908060040154908060050154908060060154908060070154905088565b6006602052816000526040600020818154811061298f57600080fd5b9060005260206000209060080201600091509150508060000160009054906101000a900473ffffffffffffffffffffffffffffffffffffffff16908060010180546129d990613f56565b80601f0160208091040260200160405190810160405280929190818152602001828054612a0590613f56565b8015612a525780601f10612a2757610100808354040283529160200191612a52565b820191906000526020600020905b815481529060010190602001808311612a3557829003601f168201915b5050505050908060020154908060030154908060040154908060050154908060060154908060070154905088565b60606000600190505b60058111612e7f5760005b6004600083815260200190815260200160002080549050811015612e6b5783600460008481526020019081526020016000208281548110612ad857612ad76143db565b5b90600052602060002090600802016007015403612e5e576008604051806101000160405280600460008681526020019081526020016000208481548110612b2257612b216143db565b5b906000526020600020906008020160000160009054906101000a900473ffffffffffffffffffffffffffffffffffffffff1673ffffffffffffffffffffffffffffffffffffffff168152602001600460008681526020019081526020016000208481548110612b9457612b936143db565b5b90600052602060002090600802016001018054612bb090613f56565b80601f0160208091040260200160405190810160405280929190818152602001828054612bdc90613f56565b8015612c295780601f10612bfe57610100808354040283529160200191612c29565b820191906000526020600020905b815481529060010190602001808311612c0c57829003601f168201915b50505050508152602001600460008681526020019081526020016000208481548110612c5857612c576143db565b5b9060005260206000209060080201600201548152602001600460008681526020019081526020016000208481548110612c9457612c936143db565b5b9060005260206000209060080201600301548152602001600460008681526020019081526020016000208481548110612cd057612ccf6143db565b5b9060005260206000209060080201600401548152602001600460008681526020019081526020016000208481548110612d0c57612d0b6143db565b5b9060005260206000209060080201600501548152602001600460008681526020019081526020016000208481548110612d4857612d476143db565b5b9060005260206000209060080201600501548152602001600460008681526020019081526020016000208481548110612d8457612d836143db565b5b906000526020600020906008020160070154815250908060018154018082558091505060019003906000526020600020906008020160009091909190915060008201518160000160006101000a81548173ffffffffffffffffffffffffffffffffffffffff021916908373ffffffffffffffffffffffffffffffffffffffff1602179055506020820151816001019081612e1e919061429d565b5060408201518160020155606082015181600301556080820151816004015560a0820151816005015560c0820151816006015560e0820151816007015550505b8080600101915050612a94565b508080612e77906149d9565b915050612a89565b506000600190505b6005811161327d5760005b60066000838152602001908152602001600020805490508110156132695783600660008481526020019081526020016000208281548110612ed657612ed56143db565b5b9060005260206000209060080201600701540361325c576008604051806101000160405280600660008681526020019081526020016000208481548110612f2057612f1f6143db565b5b906000526020600020906008020160000160009054906101000a900473ffffffffffffffffffffffffffffffffffffffff1673ffffffffffffffffffffffffffffffffffffffff168152602001600660008681526020019081526020016000208481548110612f9257612f916143db565b5b90600052602060002090600802016001018054612fae90613f56565b80601f0160208091040260200160405190810160405280929190818152602001828054612fda90613f56565b80156130275780601f10612ffc57610100808354040283529160200191613027565b820191906000526020600020905b81548152906001019060200180831161300a57829003601f168201915b50505050508152602001600660008681526020019081526020016000208481548110613056576130556143db565b5b9060005260206000209060080201600201548152602001600660008681526020019081526020016000208481548110613092576130916143db565b5b90600052602060002090600802016003015481526020016006600086815260200190815260200160002084815481106130ce576130cd6143db565b5b906000526020600020906008020160040154815260200160066000868152602001908152602001600020848154811061310a576131096143db565b5b9060005260206000209060080201600501548152602001600660008681526020019081526020016000208481548110613146576131456143db565b5b9060005260206000209060080201600501548152602001600660008681526020019081526020016000208481548110613182576131816143db565b5b906000526020600020906008020160070154815250908060018154018082558091505060019003906000526020600020906008020160009091909190915060008201518160000160006101000a81548173ffffffffffffffffffffffffffffffffffffffff021916908373ffffffffffffffffffffffffffffffffffffffff160217905550602082015181600101908161321c919061429d565b5060408201518160020155606082015181600301556080820151816004015560a0820151816005015560c0820151816006015560e0820151816007015550505b8080600101915050612e92565b508080613275906149d9565b915050612e87565b506000600190505b6005811161367b5760005b600560008381526020019081526020016000208054905081101561366757836005600084815260200190815260200160002082815481106132d4576132d36143db565b5b9060005260206000209060080201600701540361365a57600860405180610100016040528060056000868152602001908152602001600020848154811061331e5761331d6143db565b5b906000526020600020906008020160000160009054906101000a900473ffffffffffffffffffffffffffffffffffffffff1673ffffffffffffffffffffffffffffffffffffffff1681526020016005600086815260200190815260200160002084815481106133905761338f6143db565b5b906000526020600020906008020160010180546133ac90613f56565b80601f01602080910402602001604051908101604052809291908181526020018280546133d890613f56565b80156134255780601f106133fa57610100808354040283529160200191613425565b820191906000526020600020905b81548152906001019060200180831161340857829003601f168201915b50505050508152602001600560008681526020019081526020016000208481548110613454576134536143db565b5b90600052602060002090600802016002015481526020016005600086815260200190815260200160002084815481106134905761348f6143db565b5b90600052602060002090600802016003015481526020016005600086815260200190815260200160002084815481106134cc576134cb6143db565b5b9060005260206000209060080201600401548152602001600560008681526020019081526020016000208481548110613508576135076143db565b5b9060005260206000209060080201600501548152602001600560008681526020019081526020016000208481548110613544576135436143db565b5b90600052602060002090600802016005015481526020016005600086815260200190815260200160002084815481106135805761357f6143db565b5b906000526020600020906008020160070154815250908060018154018082558091505060019003906000526020600020906008020160009091909190915060008201518160000160006101000a81548173ffffffffffffffffffffffffffffffffffffffff021916908373ffffffffffffffffffffffffffffffffffffffff160217905550602082015181600101908161361a919061429d565b5060408201518160020155606082015181600301556080820151816004015560a0820151816005015560c0820151816006015560e0820151816007015550505b8080600101915050613290565b508080613673906149d9565b915050613285565b506008805480602002602001604051908101604052809291908181526020016000905b828210156137f55783829060005260206000209060080201604051806101000160405290816000820160009054906101000a900473ffffffffffffffffffffffffffffffffffffffff1673ffffffffffffffffffffffffffffffffffffffff1673ffffffffffffffffffffffffffffffffffffffff16815260200160018201805461372890613f56565b80601f016020809104026020016040519081016040528092919081815260200182805461375490613f56565b80156137a15780601f10613776576101008083540402835291602001916137a1565b820191906000526020600020905b81548152906001019060200180831161378457829003601f168201915b5050505050815260200160028201548152602001600382015481526020016004820154815260200160058201548152602001600682015481526020016007820154815250508152602001906001019061369e565b505050509050919050565b6000604051905090565b600080fd5b600080fd5b6000819050919050565b61382781613814565b811461383257600080fd5b50565b6000813590506138448161381e565b92915050565b6000602082840312156138605761385f61380a565b5b600061386e84828501613835565b91505092915050565b600073ffffffffffffffffffffffffffffffffffffffff82169050919050565b60006138a282613877565b9050919050565b6138b281613897565b82525050565b600081519050919050565b600082825260208201905092915050565b60005b838110156138f25780820151818401526020810190506138d7565b60008484015250505050565b6000601f19601f8301169050919050565b600061391a826138b8565b61392481856138c3565b93506139348185602086016138d4565b61393d816138fe565b840191505092915050565b61395181613814565b82525050565b60006101008201905061396d600083018b6138a9565b818103602083015261397f818a61390f565b905061398e6040830189613948565b61399b6060830188613948565b6139a86080830187613948565b6139b560a0830186613948565b6139c260c0830185613948565b6139cf60e0830184613948565b9998505050505050505050565b600080fd5b600080fd5b7f4e487b7100000000000000000000000000000000000000000000000000000000600052604160045260246000fd5b613a1e826138fe565b810181811067ffffffffffffffff82111715613a3d57613a3c6139e6565b5b80604052505050565b6000613a50613800565b9050613a5c8282613a15565b919050565b600067ffffffffffffffff821115613a7c57613a7b6139e6565b5b613a85826138fe565b9050602081019050919050565b82818337600083830152505050565b6000613ab4613aaf84613a61565b613a46565b905082815260208101848484011115613ad057613acf6139e1565b5b613adb848285613a92565b509392505050565b600082601f830112613af857613af76139dc565b5b8135613b08848260208601613aa1565b91505092915050565b60008060408385031215613b2857613b2761380a565b5b600083013567ffffffffffffffff811115613b4657613b4561380f565b5b613b5285828601613ae3565b9250506020613b6385828601613835565b9150509250929050565b6000606082019050613b8260008301866138a9565b8181036020830152613b94818561390f565b9050613ba36040830184613948565b949350505050565b60008060008060808587031215613bc557613bc461380a565b5b6000613bd387828801613835565b9450506020613be487828801613835565b9350506040613bf587828801613835565b9250506060613c0687828801613835565b91505092959194509250565b60008060408385031215613c2957613c2861380a565b5b6000613c3785828601613835565b9250506020613c4885828601613835565b9150509250929050565b600080600080600080600060e0888a031215613c7157613c7061380a565b5b6000613c7f8a828b01613835565b975050602088013567ffffffffffffffff811115613ca057613c9f61380f565b5b613cac8a828b01613ae3565b9650506040613cbd8a828b01613835565b9550506060613cce8a828b01613835565b9450506080613cdf8a828b01613835565b93505060a0613cf08a828b01613835565b92505060c0613d018a828b01613835565b91505092959891949750929550565b6000602082019050613d256000830184613948565b92915050565b600081519050919050565b600082825260208201905092915050565b6000819050602082019050919050565b613d6081613897565b82525050565b600082825260208201905092915050565b6000613d82826138b8565b613d8c8185613d66565b9350613d9c8185602086016138d4565b613da5816138fe565b840191505092915050565b613db981613814565b82525050565b600061010083016000830151613dd86000860182613d57565b5060208301518482036020860152613df08282613d77565b9150506040830151613e056040860182613db0565b506060830151613e186060860182613db0565b506080830151613e2b6080860182613db0565b5060a0830151613e3e60a0860182613db0565b5060c0830151613e5160c0860182613db0565b5060e0830151613e6460e0860182613db0565b508091505092915050565b6000613e7b8383613dbf565b905092915050565b6000602082019050919050565b6000613e9b82613d2b565b613ea58185613d36565b935083602082028501613eb785613d47565b8060005b85811015613ef35784840389528151613ed48582613e6f565b9450613edf83613e83565b925060208a01995050600181019050613ebb565b50829750879550505050505092915050565b60006020820190508181036000830152613f1f8184613e90565b905092915050565b7f4e487b7100000000000000000000000000000000000000000000000000000000600052602260045260246000fd5b60006002820490506001821680613f6e57607f821691505b602082108103613f8157613f80613f27565b5b50919050565b7f69642063616e6e6f74206265206c6573736572207468616e203020616e64206760008201527f726561746572207468616e203500000000000000000000000000000000000000602082015250565b6000613fe3602d836138c3565b9150613fee82613f87565b604082019050919050565b6000602082019050818103600083015261401281613fd6565b9050919050565b7f696420616c726561647920736574202c2075736520616e6f7468657200000000600082015250565b600061404f601c836138c3565b915061405a82614019565b602082019050919050565b6000602082019050818103600083015261407e81614042565b9050919050565b7f4e6f7420656e6f7567682046454520656e746572656400000000000000000000600082015250565b60006140bb6016836138c3565b91506140c682614085565b602082019050919050565b600060208201905081810360008301526140ea816140ae565b9050919050565b60008190508160005260206000209050919050565b60006020601f8301049050919050565b600082821b905092915050565b6000600883026141537fffffffffffffffffffffffffffffffffffffffffffffffffffffffffffffffff82614116565b61415d8683614116565b95508019841693508086168417925050509392505050565b6000819050919050565b600061419a61419561419084613814565b614175565b613814565b9050919050565b6000819050919050565b6141b48361417f565b6141c86141c0826141a1565b848454614123565b825550505050565b600090565b6141dd6141d0565b6141e88184846141ab565b505050565b5b8181101561420c576142016000826141d5565b6001810190506141ee565b5050565b601f82111561425157614222816140f1565b61422b84614106565b8101602085101561423a578190505b61424e61424685614106565b8301826141ed565b50505b505050565b600082821c905092915050565b600061427460001984600802614256565b1980831691505092915050565b600061428d8383614263565b9150826002028217905092915050565b6142a6826138b8565b67ffffffffffffffff8111156142bf576142be6139e6565b5b6142c98254613f56565b6142d4828285614210565b600060209050601f83116001811461430757600084156142f5578287015190505b6142ff8582614281565b865550614367565b601f198416614315866140f1565b60005b8281101561433d57848901518255600182019150602085019450602081019050614318565b8683101561435a5784890151614356601f891682614263565b8355505b6001600288020188555050505b505050505050565b7f6e6f207375636820636f6e73756d657220657869737473000000000000000000600082015250565b60006143a56017836138c3565b91506143b08261436f565b602082019050919050565b600060208201905081810360008301526143d481614398565b9050919050565b7f4e487b7100000000000000000000000000000000000000000000000000000000600052603260045260246000fd5b7f6e6f74206164657175617465207175616e746974790000000000000000000000600082015250565b60006144406015836138c3565b915061444b8261440a565b602082019050919050565b6000602082019050818103600083015261446f81614433565b9050919050565b7f4e487b7100000000000000000000000000000000000000000000000000000000600052601160045260246000fd5b60006144b082613814565b91506144bb83613814565b92508282026144c981613814565b915082820484148315176144e0576144df614476565b5b5092915050565b7f4e487b7100000000000000000000000000000000000000000000000000000000600052601260045260246000fd5b600061452182613814565b915061452c83613814565b92508261453c5761453b6144e7565b5b828204905092915050565b7f6c657373657220616d6f756e7420000000000000000000000000000000000000600082015250565b600061457d600e836138c3565b915061458882614547565b602082019050919050565b600060208201905081810360008301526145ac81614570565b9050919050565b60006145be82613814565b91506145c983613814565b92508282039050818111156145e1576145e0614476565b5b92915050565b7f6e6f20737563682077686f6c6573616c65720000000000000000000000000000600082015250565b600061461d6012836138c3565b9150614628826145e7565b602082019050919050565b6000602082019050818103600083015261464c81614610565b9050919050565b7f6275792061646571756174652070726f64756374000000000000000000000000600082015250565b60006146896014836138c3565b915061469482614653565b602082019050919050565b600060208201905081810360008301526146b88161467c565b9050919050565b7f70726f64756374732046696e6973686564000000000000000000000000000000600082015250565b60006146f56011836138c3565b9150614700826146bf565b602082019050919050565b60006020820190508181036000830152614724816146e8565b9050919050565b600081905092915050565b50565b600061474660008361472b565b915061475182614736565b600082019050919050565b600061476782614739565b9150819050919050565b7f636f756c646e742073656e64206d6f6e65790000000000000000000000000000600082015250565b60006147a76012836138c3565b91506147b282614771565b602082019050919050565b600060208201905081810360008301526147d68161479a565b9050919050565b7f6e6f20737563682072657461696c657220657869737473000000000000000000600082015250565b60006148136017836138c3565b915061481e826147dd565b602082019050919050565b6000602082019050818103600083015261484281614806565b9050919050565b7f696e76616c6964206d616e756661637475726572206964202c2063726561746560008201527f20616e206163636f756e74206669727374200000000000000000000000000000602082015250565b60006148a56032836138c3565b91506148b082614849565b604082019050919050565b600060208201905081810360008301526148d481614898565b9050919050565b7f6e6f2065746820656e7465726564200000000000000000000000000000000000600082015250565b6000614911600f836138c3565b915061491c826148db565b602082019050919050565b6000602082019050818103600083015261494081614904565b9050919050565b7f696420616c726561647920736574202c2075736520616e6f74686572206e756d60008201527f6265722000000000000000000000000000000000000000000000000000000000602082015250565b60006149a36024836138c3565b91506149ae82614947565b604082019050919050565b600060208201905081810360008301526149d281614996565b9050919050565b60006149e482613814565b91507fffffffffffffffffffffffffffffffffffffffffffffffffffffffffffffffff8203614a1657614a15614476565b5b60018201905091905056fea2646970667358221220fca4737862cb72f2532fde48c1cf46f64c19d7e83e40324a8e6de46647ad965464736f6c634300081c0033",
  "devdoc": {
    "kind": "dev",
    "methods": {},
    "version": 1
  },
  "userdoc": {
    "kind": "user",
    "methods": {},
    "version": 1
  },
  "storageLayout": {
    "storage": [
      {
        "astId": 95,
        "contract": "contracts/supply.sol:supplyChain",
        "label": "manDetails",
        "offset": 0,
        "slot": "0",
        "type": "t_mapping(t_uint256,t_struct(ManDetails)69_storage)"
      },
      {
        "astId": 100,
        "contract": "contracts/supply.sol:supplyChain",
        "label": "wholDetail",
        "offset": 0,
        "slot": "1",
        "type": "t_mapping(t_uint256,t_struct(WholDetail)76_storage)"
      },
      {
        "astId": 105,
        "contract": "contracts/supply.sol:supplyChain",
        "label": "retailDetail",
        "offset": 0,
        "slot": "2",
        "type": "t_mapping(t_uint256,t_struct(RetailDetail)83_storage)"
      },
      {
        "astId": 110,
        "contract": "contracts/supply.sol:supplyChain",
        "label": "consumerDetail",
        "offset": 0,
        "slot": "3",
        "type": "t_mapping(t_uint256,t_struct(ConsumerDetail)90_storage)"
      },
      {
        "astId": 116,
        "contract": "contracts/supply.sol:supplyChain",
        "label": "mfgProdHistory",
        "offset": 0,
        "slot": "4",
        "type": "t_mapping(t_uint256,t_array(t_struct(productDetails)62_storage)dyn_storage)"
      },
      {
        "astId": 122,
        "contract": "contracts/supply.sol:supplyChain",
        "label": "wholProdHistory",
        "offset": 0,
        "slot": "5",
        "type": "t_mapping(t_uint256,t_array(t_struct(productDetails)62_storage)dyn_storage)"
      },
      {
        "astId": 128,
        "contract": "contracts/supply.sol:supplyChain",
        "label": "retailProdHistory",
        "offset": 0,
        "slot": "6",
        "type": "t_mapping(t_uint256,t_array(t_struct(productDetails)62_storage)dyn_storage)"
      },
      {
        "astId": 134,
        "contract": "contracts/supply.sol:supplyChain",
        "label": "consumerProdHistory",
        "offset": 0,
        "slot": "7",
        "type": "t_mapping(t_uint256,t_array(t_struct(productDetails)62_storage)dyn_storage)"
      },
      {
        "astId": 889,
        "contract": "contracts/supply.sol:supplyChain",
        "label": "foundProducts",
        "offset": 0,
        "slot": "8",
        "type": "t_array(t_struct(productDetails)62_storage)dyn_storage"
      }
    ],
    "types": {
      "t_address": {
        "encoding": "inplace",
        "label": "address",
        "numberOfBytes": "20"
      },
      "t_array(t_struct(productDetails)62_storage)dyn_storage": {
        "base": "t_struct(productDetails)62_storage",
        "encoding": "dynamic_array",
        "label": "struct supplyChain.productDetails[]",
        "numberOfBytes": "32"
      },
      "t_mapping(t_uint256,t_array(t_struct(productDetails)62_storage)dyn_storage)": {
        "encoding": "mapping",
        "key": "t_uint256",
        "label": "mapping(uint256 => struct supplyChain.productDetails[])",
        "numberOfBytes": "32",
        "value": "t_array(t_struct(productDetails)62_storage)dyn_storage"
      },
      "t_mapping(t_uint256,t_struct(ConsumerDetail)90_storage)": {
        "encoding": "mapping",
        "key": "t_uint256",
        "label": "mapping(uint256 => struct supplyChain.ConsumerDetail)",
        "numberOfBytes": "32",
        "value": "t_struct(ConsumerDetail)90_storage"
      },
      "t_mapping(t_uint256,t_struct(ManDetails)69_storage)": {
        "encoding": "mapping",
        "key": "t_uint256",
        "label": "mapping(uint256 => struct supplyChain.ManDetails)",
        "numberOfBytes": "32",
        "value": "t_struct(ManDetails)69_storage"
      },
      "t_mapping(t_uint256,t_struct(RetailDetail)83_storage)": {
        "encoding": "mapping",
        "key": "t_uint256",
        "label": "mapping(uint256 => struct supplyChain.RetailDetail)",
        "numberOfBytes": "32",
        "value": "t_struct(RetailDetail)83_storage"
      },
      "t_mapping(t_uint256,t_struct(WholDetail)76_storage)": {
        "encoding": "mapping",
        "key": "t_uint256",
        "label": "mapping(uint256 => struct supplyChain.WholDetail)",
        "numberOfBytes": "32",
        "value": "t_struct(WholDetail)76_storage"
      },
      "t_string_storage": {
        "encoding": "bytes",
        "label": "string",
        "numberOfBytes": "32"
      },
      "t_struct(ConsumerDetail)90_storage": {
        "encoding": "inplace",
        "label": "struct supplyChain.ConsumerDetail",
        "members": [
          {
            "astId": 85,
            "contract": "contracts/supply.sol:supplyChain",
            "label": "consumer",
            "offset": 0,
            "slot": "0",
            "type": "t_address"
          },
          {
            "astId": 87,
            "contract": "contracts/supply.sol:supplyChain",
            "label": "name",
            "offset": 0,
            "slot": "1",
            "type": "t_string_storage"
          },
          {
            "astId": 89,
            "contract": "contracts/supply.sol:supplyChain",
            "label": "consId",
            "offset": 0,
            "slot": "2",
            "type": "t_uint256"
          }
        ],
        "numberOfBytes": "96"
      },
      "t_struct(ManDetails)69_storage": {
        "encoding": "inplace",
        "label": "struct supplyChain.ManDetails",
        "members": [
          {
            "astId": 64,
            "contract": "contracts/supply.sol:supplyChain",
            "label": "manufacturer",
            "offset": 0,
            "slot": "0",
            "type": "t_address"
          },
          {
            "astId": 66,
            "contract": "contracts/supply.sol:supplyChain",
            "label": "name",
            "offset": 0,
            "slot": "1",
            "type": "t_string_storage"
          },
          {
            "astId": 68,
            "contract": "contracts/supply.sol:supplyChain",
            "label": "manId",
            "offset": 0,
            "slot": "2",
            "type": "t_uint256"
          }
        ],
        "numberOfBytes": "96"
      },
      "t_struct(RetailDetail)83_storage": {
        "encoding": "inplace",
        "label": "struct supplyChain.RetailDetail",
        "members": [
          {
            "astId": 78,
            "contract": "contracts/supply.sol:supplyChain",
            "label": "retail",
            "offset": 0,
            "slot": "0",
            "type": "t_address"
          },
          {
            "astId": 80,
            "contract": "contracts/supply.sol:supplyChain",
            "label": "name",
            "offset": 0,
            "slot": "1",
            "type": "t_string_storage"
          },
          {
            "astId": 82,
            "contract": "contracts/supply.sol:supplyChain",
            "label": "retailId",
            "offset": 0,
            "slot": "2",
            "type": "t_uint256"
          }
        ],
        "numberOfBytes": "96"
      },
      "t_struct(WholDetail)76_storage": {
        "encoding": "inplace",
        "label": "struct supplyChain.WholDetail",
        "members": [
          {
            "astId": 71,
            "contract": "contracts/supply.sol:supplyChain",
            "label": "whol",
            "offset": 0,
            "slot": "0",
            "type": "t_address"
          },
          {
            "astId": 73,
            "contract": "contracts/supply.sol:supplyChain",
            "label": "name",
            "offset": 0,
            "slot": "1",
            "type": "t_string_storage"
          },
          {
            "astId": 75,
            "contract": "contracts/supply.sol:supplyChain",
            "label": "wholId",
            "offset": 0,
            "slot": "2",
            "type": "t_uint256"
          }
        ],
        "numberOfBytes": "96"
      },
      "t_struct(productDetails)62_storage": {
        "encoding": "inplace",
        "label": "struct supplyChain.productDetails",
        "members": [
          {
            "astId": 47,
            "contract": "contracts/supply.sol:supplyChain",
            "label": "manufacturer",
            "offset": 0,
            "slot": "0",
            "type": "t_address"
          },
          {
            "astId": 49,
            "contract": "contracts/supply.sol:supplyChain",
            "label": "productName",
            "offset": 0,
            "slot": "1",
            "type": "t_string_storage"
          },
          {
            "astId": 51,
            "contract": "contracts/supply.sol:supplyChain",
            "label": "mfgYear",
            "offset": 0,
            "slot": "2",
            "type": "t_uint256"
          },
          {
            "astId": 53,
            "contract": "contracts/supply.sol:supplyChain",
            "label": "quantity",
            "offset": 0,
            "slot": "3",
            "type": "t_uint256"
          },
          {
            "astId": 55,
            "contract": "contracts/supply.sol:supplyChain",
            "label": "expireYear",
            "offset": 0,
            "slot": "4",
            "type": "t_uint256"
          },
          {
            "astId": 57,
            "contract": "contracts/supply.sol:supplyChain",
            "label": "sellingPrice",
            "offset": 0,
            "slot": "5",
            "type": "t_uint256"
          },
          {
            "astId": 59,
            "contract": "contracts/supply.sol:supplyChain",
            "label": "lotPrice",
            "offset": 0,
            "slot": "6",
            "type": "t_uint256"
          },
          {
            "astId": 61,
            "contract": "contracts/supply.sol:supplyChain",
            "label": "uniqueId",
            "offset": 0,
            "slot": "7",
            "type": "t_uint256"
          }
        ],
        "numberOfBytes": "256"
      },
      "t_uint256": {
        "encoding": "inplace",
        "label": "uint256",
        "numberOfBytes": "32"
      }
    }
  }
}